:100000000C942A000C943F000C943F000C943F0089
:100010000C943F000C943F000C943F000C943F0064
:100020000C943F000C943F000C943F000C943F0054
:100030000C943F000C943F000C943F000C943F0044
:100040000C943F000C943F000C943F000C943F0034
:100050000C943F0011241FBECFE5D8E0DEBFCDBF1A
:1000600010E0A0E6B0E0E4E2F4E002C005900D92FA
:10007000AC36B107D9F70E9441000C9410020C94E1
:10008000000089E690E00E94CD0186E690E00E94A3
:10009000CD0183E690E00E94CD0180E690E00E94D1
:1000A000CD0140E064E081E00E948B0040E065E02B
:1000B00081E00E948B004FEF66E081E00E948B00A0
:1000C00040E067E081E00E948B0080E00E94EF0149
:1000D0000E9408020E940C02823071F018F48130F4
:1000E00031F0F8CF833069F0843081F0F3CF89E6C6
:1000F00090E00E94DB01EECF86E690E00E94DB01FB
:10010000E9CF83E690E00E94DB01E4CF80E690E057
:100110000E94DB01DFCF843008F072C0683008F045
:100120006FC04F3FA1F5813089F028F08230C9F0CF
:10013000833011F108952AB381E090E002C0880F66
:10014000991F6A95E2F7822B8ABB089527B381E055
:1001500090E002C0880F991F6A95E2F7822B87BB57
:10016000089524B381E090E002C0880F991F6A953A
:10017000E2F7822B84BB089521B381E090E002C0B6
:10018000880F991F6A95E2F7822B81BB0895411170
:1001900037C0813091F028F08230D9F0833029F1D6
:1001A00008952AB381E090E002C0880F991F6A95F4
:1001B000E2F7809582238ABB089527B381E090E01F
:1001C00002C0880F991F6A95E2F78095822387BB4A
:1001D000089524B381E090E002C0880F991F6A95CA
:1001E000E2F78095822384BB089521B381E090E0FB
:1001F00002C0880F991F6A95E2F78095822381BB20
:100200000895843008F072C0683008F06FC0413043
:10021000A1F5813089F028F08230C9F0833011F1E6
:1002200008952BB381E090E002C0880F991F6A9572
:10023000E2F7822B8BBB089528B381E090E002C0E7
:10024000880F991F6A95E2F7822B88BB089525B322
:1002500081E090E002C0880F991F6A95E2F7822B37
:1002600085BB089522B381E090E002C0880F991FFA
:100270006A95E2F7822B82BB0895411137C0813025
:1002800091F028F08230D9F0833029F108952BB312
:1002900081E090E002C0880F991F6A95E2F780958F
:1002A00082238BBB089528B381E090E002C0880FC1
:1002B000991F6A95E2F78095822388BB089525B33C
:1002C00081E090E002C0880F991F6A95E2F780955F
:1002D000822385BB089522B381E090E002C0880F9D
:1002E000991F6A95E2F78095822382BB0895843036
:1002F00070F5683070F5813079F028F08230A9F01F
:100300008330E1F028C089B390E002C095958795CD
:100310006A95E2F78170089586B390E002C09595E2
:1003200087956A95E2F78170089583B390E002C0E3
:10033000959587956A95E2F78170089580B390E06E
:1003400002C0959587956A95E2F78170089580E0DF
:10035000089580E0089580E00895FC018281813055
:1003600031F441E0618180810E940101089540E003
:10037000618180810E9401010895FC0182818130A8
:1003800031F440E0618180810E940101089541E0E3
:10039000618180810E9401010895CF93DF93EC0178
:1003A0004FEF698188810E948B00CE010E94BD01C0
:1003B000DF91CF910895CF93DF93EC01698188811C
:1003C0000E9477019A81891304C0CE010E94BD0169
:1003D00003C0CE010E94AD01DF91CF9108959DB180
:1003E0009F7D9DB99DB19F7E9DB981FF04C09DB148
:1003F00098609DB903C09DB1977F9DB980FF04C0EF
:100400008DB184608DB908958DB18B7F8DB90895BC
:100410008DB180648DB90895779BFECF8FB108951B
:04042000F894FFCF7E
:0C042400020301020201020101020001BA
:00000001FF
