:100000000C942A000C9434000C9434000C943400AA
:100010000C9434000C9434000C9434000C94340090
:100020000C9434000C9434000C9434000C94340080
:100030000C9434000C9434000C9434000C94340070
:100040000C9434000C9434000C9434000C94340060
:100050000C94340011241FBECFE5D8E0DEBFCDBF25
:100060000E945F000C94AE010C94000087B1806484
:1000700087B987B18F7787B986B1846086B986B131
:10008000826086B986B18E7F86B986B1806886B96E
:10009000089597B1907E97B997B18770982B97B9CB
:1000A00086B1806486B9349BFECF86B1806186B903
:1000B00024B185B190E0982F8827822B089540E0E5
:1000C00060E080E00E949E0040E060E080E00E94EE
:1000D000140140E060E082E00E949E0041E060E0A8
:1000E00082E00E94140140E061E082E00E949E00F4
:1000F00041E061E082E00E9414010E9436000E940B
:100100008A0180E00E944900843F914010F4C4E4D9
:1001100001C0C2E40E94960181E00E949F018C2FE1
:100120000E94A7010E949C018FE996E821E081507E
:1001300090402040E1F700C00000E3CF843008F099
:1001400072C0683008F06FC04F3FA1F5813089F070
:1001500028F08230C9F0833011F108952AB381E08C
:1001600090E002C0880F991F6A95E2F7822B8ABB44
:10017000089527B381E090E002C0880F991F6A9527
:10018000E2F7822B87BB089524B381E090E002C0A0
:10019000880F991F6A95E2F7822B84BB089521B3DB
:1001A00081E090E002C0880F991F6A95E2F7822BE8
:1001B00081BB0895411137C0813091F028F0823021
:1001C000D9F0833029F108952AB381E090E002C08C
:1001D000880F991F6A95E2F7809582238ABB08955C
:1001E00027B381E090E002C0880F991F6A95E2F77B
:1001F0008095822387BB089524B381E090E002C0FC
:10020000880F991F6A95E2F78095822384BB089531
:1002100021B381E090E002C0880F991F6A95E2F750
:100220008095822381BB0895843008F072C06830C5
:1002300008F06FC04130A1F5813089F028F082309C
:10024000C9F0833011F108952BB381E090E002C032
:10025000880F991F6A95E2F7822B8BBB089528B30C
:1002600081E090E002C0880F991F6A95E2F7822B27
:1002700088BB089525B381E090E002C0880F991FE4
:100280006A95E2F7822B85BB089522B381E090E066
:1002900002C0880F991F6A95E2F7822B82BB0895EE
:1002A000411137C0813091F028F08230D9F083308D
:1002B00029F108952BB381E090E002C0880F991FC7
:1002C0006A95E2F7809582238BBB089528B381E07D
:1002D00090E002C0880F991F6A95E2F7809582230B
:1002E00088BB089525B381E090E002C0880F991F74
:1002F0006A95E2F78095822385BB089522B381E059
:1003000090E002C0880F991F6A95E2F780958223DA
:1003100082BB089582E080B981B18E7F81B981B1BD
:100320008D7F81B986B7846086BF089584EA86BFD1
:1003300006B607FEFDCF089584E986BF0895880FAD
:1003400083B984E886BF06B607FEFDCF089583B95A
:1003500084E886BF06B607FEFDCF0895F894FFCF68
:00000001FF
