S0110000646179385F6C6162312E73726563DE
S11300000C942A000C9447000C9447000C9447006D
S11300100C9447000C9447000C9447000C94470040
S11300200C9447000C9447000C9447000C94E20194
S11300300C9447000C9447000C9447000C94470020
S11300400C9447000C9447000C9447000C94470010
S11300500C94470011241FBECFE5D8E0DEBFCDBF0E
S113006010E0A0E6B0E0EAE1F4E002C005900D92F1
S1130070A436B107D9F720E0A4E6B0E001C01D9290
S1130080A736B207E1F70E9459000C940B020C94B6
S11300900000809164008F5F80936400809164000D
S11300A08D3330F080E690E00E94BB011092640032
S11300B0089580E690E00E94AD0180E00E94D7019F
S11300C089E490E00E94DD010E94D901789485E0E2
S11300D00E94CF01FFCF843008F072C0683008F06E
S11300E06FC04F3FA1F5813089F028F08230C9F00C
S11300F0833011F108952AB381E090E002C0880FA3
S1130100991F6A95E2F7822B8ABB089527B381E091
S113011090E002C0880F991F6A95E2F7822B87BB93
S1130120089524B381E090E002C0880F991F6A9576
S1130130E2F7822B84BB089521B381E090E002C0F2
S1130140880F991F6A95E2F7822B81BB08954111AC
S113015037C0813091F028F08230D9F0833029F112
S113016008952AB381E090E002C0880F991F6A9530
S1130170E2F7809582238ABB089527B381E090E05B
S113018002C0880F991F6A95E2F78095822387BB86
S1130190089524B381E090E002C0880F991F6A9506
S11301A0E2F78095822384BB089521B381E090E037
S11301B002C0880F991F6A95E2F78095822381BB5C
S11301C00895843008F072C0683008F06FC0413080
S11301D0A1F5813089F028F08230C9F0833011F123
S11301E008952BB381E090E002C0880F991F6A95AF
S11301F0E2F7822B8BBB089528B381E090E002C024
S1130200880F991F6A95E2F7822B88BB089525B35E
S113021081E090E002C0880F991F6A95E2F7822B73
S113022085BB089522B381E090E002C0880F991F36
S11302306A95E2F7822B82BB0895411137C0813061
S113024091F028F08230D9F0833029F108952BB34E
S113025081E090E002C0880F991F6A95E2F78095CB
S113026082238BBB089528B381E090E002C0880FFD
S1130270991F6A95E2F78095822388BB089525B378
S113028081E090E002C0880F991F6A95E2F780959B
S1130290822385BB089522B381E090E002C0880FD9
S11302A0991F6A95E2F78095822382BB0895843072
S11302B070F5683070F5813079F028F08230A9F05B
S11302C08330E1F028C089B390E002C0959587950A
S11302D06A95E2F78170089586B390E002C095951F
S11302E087956A95E2F78170089583B390E002C020
S11302F0959587956A95E2F78170089580B390E0AB
S113030002C0959587956A95E2F78170089580E01B
S1130310089580E0089580E00895FC018281813091
S113032031F441E0618180810E94E100089540E060
S1130330618180810E94E1000895FC018281813005
S113034031F440E0618180810E94E100089541E040
S1130350618180810E94E1000895CF93DF93EC01D5
S11303604FEF698188810E946B00CE010E949D013C
S1130370DF91CF910895CF93DF93EC016981888158
S11303800E9457019A81891304C0CE010E949D01E5
S113039003C0CE010E948D01DF91CF91089593B7E0
S11303A0987F93BF93B78770982B93BF089582BFAC
S11303B0089589B7816089BF0895909366008093FA
S11303C0650008951F920F920FB60F9211242F9378
S11303D03F934F935F936F937F938F939F93AF93C9
S11303E0BF93EF93FF93E0916500F091660030971F
S11303F009F00995FF91EF91BF91AF919F918F9172
S11304007F916F915F914F913F912F910F900FBE0C
S10D04100F901F901895F894FFCF89
S107041A00000100D9
S9030000FC
