:100000000C942A000C9434000C9434000C943400AA
:100010000C9434000C9434000C9434000C94340090
:100020000C9434000C9434000C9434000C94340080
:100030000C9434000C9434000C9434000C94340070
:100040000C9434000C9434000C9434000C94340060
:100050000C94340011241FBECFE5D8E0DEBFCDBF25
:100060000E945F000C94E9020C94000087B1806448
:1000700087B987B18F7787B986B1846086B986B131
:10008000826086B986B18E7F86B986B1806886B96E
:10009000089597B1907E97B997B18770982B97B9CB
:1000A00086B1806486B9349BFECF86B1806186B903
:1000B00024B185B190E0982F8827822B08956FEFA7
:1000C00082E00E94330160E082E00E9443010E94CE
:1000D000360080E00E944900BC0180E090E00E9470
:1000E000CA0120E030E44CE955E40E947C0220E0A3
:1000F00030E040E85AE30E947C0220E030E040E239
:1001000051E40E9458016B017C0160E082E00E9492
:10011000430120E030E040EA51E4C701B6010E940B
:100120005301882334F441E061E082E00E94BD0085
:100130001AC020E030E040E252E4C701B6010E945C
:100140005301181634F041E060E082E00E94BD00E7
:100150000AC041E062E082E00E94BD0041E063E04D
:1001600082E00E94BD002FE986E891E021508040A6
:100170009040E1F700C00000ACCF843008F072C0BE
:10018000683008F06FC04130A1F5813089F028F067
:100190008230C9F0833011F108952BB381E090E0F3
:1001A00002C0880F991F6A95E2F7822B8BBB0895D6
:1001B00028B381E090E002C0880F991F6A95E2F7AA
:1001C000822B88BB089525B381E090E002C0880FA0
:1001D000991F6A95E2F7822B85BB089522B381E0CF
:1001E00090E002C0880F991F6A95E2F7822B82BBCC
:1001F0000895411137C0813091F028F08230D9F054
:10020000833029F108952BB381E090E002C0880F7C
:10021000991F6A95E2F7809582238BBB089528B3D6
:1002200081E090E002C0880F991F6A95E2F78095FF
:10023000822388BB089525B381E090E002C0880F37
:10024000991F6A95E2F78095822385BB089522B3B2
:1002500081E090E002C0880F991F6A95E2F78095CF
:10026000822382BB0895813041F028F0823039F03A
:10027000833039F008956ABB089567BB089564BB65
:10028000089561BB0895813041F028F0823039F043
:10029000833039F008956BBB089568BB089565BB42
:1002A000089562BB08950E94070208F481E0089552
:1002B0000E946C010C9442020E943B0258F00E9482
:1002C000340240F029F45F3F29F00C942B025111C5
:1002D0000C9476020C9431020E94530268F3992325
:1002E000B1F3552391F3951B550BBB27AA27621732
:1002F0007307840738F09F5F5F4F220F331F441F3F
:10030000AA1FA9F335D00E2E3AF0E0E832D0915072
:100310005040E695001CCAF72BD0FE2F29D0660F5F
:10032000771F881FBB1F261737074807AB07B0E8A2
:1003300009F0BB0B802DBF01FF2793585F4F3AF0A8
:100340009E3F510578F00C942B020C9476025F3F8F
:10035000E4F3983ED4F3869577956795B795F7952E
:100360009F5FC9F7880F911D9695879597F9089516
:10037000E1E0660F771F881FBB1F621773078407B2
:10038000BA0720F0621B730B840BBA0BEE1F88F7C1
:10039000E0950895E89409C097FB3EF49095809508
:1003A000709561957F4F8F4F9F4F9923A9F0F92F3B
:1003B00096E9BB279395F695879577956795B795B9
:1003C000F111F8CFFAF4BB0F11F460FF1BC06F5F9F
:1003D0007F4F8F4F9F4F16C0882311F096E911C0B1
:1003E000772321F09EE8872F762F05C0662371F0D2
:1003F00096E8862F70E060E02AF09A95660F771FE6
:10040000881FDAF7880F9695879597F90895990FC1
:100410000008550FAA0BE0E8FEEF16161706E807CE
:10042000F907C0F012161306E407F50798F0621BEF
:10043000730B840B950B39F40A2661F0232B242BC4
:10044000252B21F408950A2609F4A140A6958FEFE3
:10045000811D811D089597F99F6780E870E060E035
:1004600008959FEF80EC089500240A94161617064D
:1004700018060906089500240A9412161306140695
:1004800005060895092E0394000C11F4882352F0F8
:10049000BB0F40F4BF2B11F460FF04C06F5F7F4FB0
:1004A0008F4F9F4F089557FD9058440F551F59F097
:1004B0005F3F71F04795880F97FB991F61F09F3F51
:1004C00079F087950895121613061406551FF2CF7A
:1004D0004695F1DF08C0161617061806991FF1CFCA
:1004E00086957105610508940895E894BB276627F1
:1004F0007727CB0197F908950E948F020C9442024E
:100500000E94340238F00E943B0220F0952311F043
:100510000C942B020C94310211240C9476020E944C
:10052000530270F3959FC1F3950F50E0551F629FE2
:10053000F001729FBB27F00DB11D639FAA27F00D3C
:10054000B11DAA1F649F6627B00DA11D661F829F63
:100550002227B00DA11D621F739FB00DA11D621F48
:10056000839FA00D611D221F749F3327A00D611D65
:10057000231F849F600D211D822F762F6A2F112447
:100580009F5750409AF0F1F088234AF0EE0FFF1F7A
:10059000BB1F661F771F881F91505040A9F79E3FD1
:1005A000510580F00C942B020C9476025F3FE4F32B
:1005B000983ED4F3869577956795B795F795E79527
:1005C0009F5FC1F7FE2B880F911D9695879597F930
:0605D0000895F894FFCF2E
:00000001FF
