S01800004763634170706C69636174696F6E31362E7372656324
S11300000C942A000C9439020C9447000C94470079
S11300100C9447000C9447000C9447000C94470040
S11300200C9447000C9447000C9447000C94470030
S11300300C9447000C9447000C9447000C94470020
S11300400C9447000C9447000C9447000C94470010
S11300500C94470011241FBECFE5D8E0DEBFCDBF0E
S113006010E0A0E6B0E0E2EFF7E002C005900D92E8
S1130070A23CB107D9F720E0A2ECB0E001C01D9288
S1130080A43CB207E1F70E9449000C94F7030C94D6
S11300900000CF93DF9300D01F92CDB7DEB70E944C
S11300A038030E94620280E895E20E94A70300E000
S11300B07EC081E00E94160380E790E00E948903DD
S11300C061E080E00E949C0310E040C00E948F0227
S11300D002C00E948F028823E1F3833419F52FE7CD
S11300E089EA93E0215080409040E1F700C000008D
S11300F081E00E94160360E080E00E949C0380E798
S113010090E00E94890361E080E00E949C032FEF4D
S113011080E792E0215080409040E1F700C0000069
S113012010E013C0E1E0F0E0EC0FFD1FE10FF11D62
S113013080838AE20E9467032FE788E391E02150DD
S113014080409040E1F700C000001F5F133008F4C6
S1130150BDCF81E00E94160360E080E00E949C0312
S113016089818133B1F48A81823399F48B81833319
S113017081F481E890E00E94890361E080E00E94BC
S11301809C038DE890E00E94890381E30E94D103DF
S113019011C086E990E00E9489032FEF84E39CE07C
S11301A0215080409040E1F700C000000F5F033011
S11301B008F47FCF0330B0F081E00E94160360E0C2
S11301C080E00E949C0382EA90E00E94890361E03F
S11301D080E00E949C0381EB90E00E94890382E30B
S11301E00E94D103FFCF843008F072C0683008F059
S11301F06FC04130A1F5813089F028F08230C9F018
S1130200833011F108952AB381E090E002C0880F91
S1130210991F6A95E2F7822B8ABB089527B381E080
S113022090E002C0880F991F6A95E2F7822B87BB82
S1130230089524B381E090E002C0880F991F6A9565
S1130240E2F7822B84BB089521B381E090E002C0E1
S1130250880F991F6A95E2F7822B81BB089541119B
S113026037C0813091F028F08230D9F0833029F101
S113027008952AB381E090E002C0880F991F6A951F
S1130280E2F7809582238ABB089527B381E090E04A
S113029002C0880F991F6A95E2F78095822387BB75
S11302A0089524B381E090E002C0880F991F6A95F5
S11302B0E2F78095822384BB089521B381E090E026
S11302C002C0880F991F6A95E2F78095822381BB4B
S11302D00895843008F072C0683008F06FC041306F
S11302E0A1F5813089F028F08230C9F0833011F112
S11302F008952BB381E090E002C0880F991F6A959E
S1130300E2F7822B8BBB089528B381E090E002C012
S1130310880F991F6A95E2F7822B88BB089525B34D
S113032081E090E002C0880F991F6A95E2F7822B62
S113033085BB089522B381E090E002C0880F991F25
S11303406A95E2F7822B82BB0895411137C0813050
S113035091F028F08230D9F0833029F108952BB33D
S113036081E090E002C0880F991F6A95E2F78095BA
S113037082238BBB089528B381E090E002C0880FEC
S1130380991F6A95E2F78095822388BB089525B367
S113039081E090E002C0880F991F6A95E2F780958A
S11303A0822385BB089522B381E090E002C0880FC8
S11303B0991F6A95E2F78095822382BB0895843061
S11303C070F5683070F5813079F028F08230A9F04A
S11303D08330E1F028C089B390E002C095958795F9
S11303E06A95E2F78170089586B390E002C095950E
S11303F087956A95E2F78170089583B390E002C00F
S1130400959587956A95E2F78170089580B390E099
S113041002C0959587956A95E2F78170089580E00A
S1130420089580E0089580E00895843078F4813060
S113043041F028F0823039F0833039F008956ABBF6
S1130440089567BB089564BB089561BB0895843023
S113045078F4813041F028F0823039F0833039F07B
S113046008956BBB089568BB089565BB089562BB8E
S113047008951F920F920FB60F9211242F933F935A
S11304804F935F936F937F938F939F93AF93BF9398
S1130490EF93FF93E091C200F091C300309709F00D
S11304A00995FF91EF91BF91AF919F918F917F91AA
S11304B06F915F914F913F912F910F900FBE0F90CD
S11304C01F90189540E060E082E00E94F30040E055
S11304D061E082E00E94F30040E062E082E00E947A
S11304E0F30040E063E082E00E94F30041E064E056
S11304F082E00E94F30041E065E082E00E94F300A4
S113050041E066E082E00E94F30041E067E082E0BF
S11305100E94F3006FEF82E00E9427020895BF92C9
S1130520CF92DF92EF92FF920F931F93CF93DF93BB
S1130530CDB7DEB768970FB6F894DEBF0FBECDBF58
S113054080E1E0E6F0E0DE01119601900D928A95DB
S1130550E1F7198A81E08A8B82E08B8B83E08C8BB4
S113056084E08D8B85E08E8B86E08F8B87E0888F8F
S1130570B12C48C0E5E1F0E0EC0FFD1FE10FF11DE7
S113058041E0608182E00E9469011F5F01C010E0C8
S1130590143080F3CB2CD12CE5E1F0E0EC0FFD1FFF
S11305A0EC0DFD1D40E0608182E00E94690110E0D5
S11305B026C0E12EF12CE1E1F0E0EC0FFD1FEE0D81
S11305C0FF1D0081602F82E00E94DF01811116C0AF
S11305D00FC0EE0CFF1CEE0CFF1C81E090E08C0FB2
S11305E09D1FE80EF91EF701EC0DFD1D80810EC064
S11305F0602F82E00E94DF01882359F31F5F1430CB
S1130600C0F2B39493E09B1510F680E068960FB6A1
S1130610F894DEBF0FBECDBFDF91CF911F910F9134
S1130620FF90EF90DF90CF90BF900895CF93C82FA5
S113063040E060E081E00E94690140E061E081E027
S11306400E9469016C2F80E00E94270241E062E071
S113065081E00E94690189EF90E00197F1F700C001
S1130660000040E062E081E00E946901CF910895BA
S113067041E060E081E00E94F30041E061E081E05C
S11306800E94F30041E062E081E00E94F3006FEF1A
S113069080E00E9415028FE097E20197F1F700C015
S11306A0000088E30E9416039DE09A95F1F78CE020
S11306B00E9416038DE08A95F1F781E00E941603EB
S11306C083EF91E00197F1F700C000000895CF9304
S11306D0C82F41E060E081E00E94690140E061E0F0
S11306E081E00E9469016C2F80E00E94270241E0B2
S11306F062E081E00E94690183EF91E00197F1F7E4
S113070000C0000040E062E081E00E946901CF91F6
S113071008950F931F93CF938C01C0E003C00E94F0
S11307206703CF5FF801EC0FF11D80818111F7CFD2
S1130730CF911F910F910895662329F0613011F430
S1130740805C01C080E080680E9416030895A0E0E8
S1130750B0E0880F991FAA1FBB1F880F991FAA1FFB
S1130760BB1F9C01AD01220F331F441F551F220FD5
S1130770331F441F551F60E072E18AE790E00E9436
S1130780D5032150310930BD29B98AB188608AB9AD
S11307908AB180618AB98AB18B7F8AB986E880BDC3
S11307A008955D9BFECF8CB90895A1E21A2EAA1B71
S11307B0BB1BFD010DC0AA1FBB1FEE1FFF1FA2170D
S11307C0B307E407F50720F0A21BB30BE40BF50B0A
S11307D0661F771F881F991F1A9469F76095709593
S11307E0809590959B01AC01BD01CF010895F894CB
S10507F0FFCF35
S11307F23738392F3435362A3132332D43303D2BB5
S1130802456E74657220646F6F7220706173733AFF
S113081200446F6F72204F70656E65640057656C9B
S1130822636F6D65210057726F6E67207061737319
S113083221004163636573732044656E69656421B5
S113084200416C61726D20547269676765726564F8
S105085221007F
S9030000FC
