:100000000C942A000C9434000C9434000C943400AA
:100010000C9434000C9434000C9434000C94340090
:100020000C9434000C9434000C9434000C94340080
:100030000C9434000C9434000C9434000C94340070
:100040000C9434000C9434000C9434000C94340060
:100050000C94340011241FBECFE5D8E0DEBFCDBF25
:100060000E9436000C94E8010C94000040E060E02F
:1000700080E00E94C60040E061E080E00E94C6008F
:1000800040E062E080E00E94C60040E063E080E083
:100090000E94C60041E060E080E00E943C0141E037
:1000A00061E080E00E943C0141E062E080E00E946B
:1000B0003C0141E063E080E00E943C0141E060E0FF
:1000C00082E00E94C60041E061E082E00E94C6003A
:1000D00041E062E082E00E94C60040E060E082E031
:1000E0000E943C0140E061E082E00E943C0140E06F
:1000F00062E082E00E943C0163E080E00E94B20185
:10010000811110C041E060E082E00E943C0141E0CA
:1001100061E082E00E943C0141E062E082E00E94F6
:100120003C01EACF60E080E00E94B201811106C08C
:1001300041E060E082E00E943C0105C040E060E0F8
:1001400082E00E943C0161E080E00E94B2018111E6
:1001500006C041E061E082E00E943C0105C040E051
:1001600061E082E00E943C0162E080E00E94B20116
:10017000811106C041E062E082E00E943C01BCCFF8
:1001800040E062E082E00E943C01B6CF843008F09B
:1001900072C0683008F06FC04130A1F5813089F03D
:1001A00028F08230C9F0833011F108952AB381E03C
:1001B00090E002C0880F991F6A95E2F7822B8ABBF4
:1001C000089527B381E090E002C0880F991F6A95D7
:1001D000E2F7822B87BB089524B381E090E002C050
:1001E000880F991F6A95E2F7822B84BB089521B38B
:1001F00081E090E002C0880F991F6A95E2F7822B98
:1002000081BB0895411137C0813091F028F08230D0
:10021000D9F0833029F108952AB381E090E002C03B
:10022000880F991F6A95E2F7809582238ABB08950B
:1002300027B381E090E002C0880F991F6A95E2F72A
:100240008095822387BB089524B381E090E002C0AB
:10025000880F991F6A95E2F78095822384BB0895E1
:1002600021B381E090E002C0880F991F6A95E2F700
:100270008095822381BB0895843008F072C0683075
:1002800008F06FC04130A1F5813089F028F082304C
:10029000C9F0833011F108952BB381E090E002C0E2
:1002A000880F991F6A95E2F7822B8BBB089528B3BC
:1002B00081E090E002C0880F991F6A95E2F7822BD7
:1002C00088BB089525B381E090E002C0880F991F94
:1002D0006A95E2F7822B85BB089522B381E090E016
:1002E00002C0880F991F6A95E2F7822B82BB08959E
:1002F000411137C0813091F028F08230D9F083303D
:1003000029F108952BB381E090E002C0880F991F76
:100310006A95E2F7809582238BBB089528B381E02C
:1003200090E002C0880F991F6A95E2F780958223BA
:1003300088BB089525B381E090E002C0880F991F23
:100340006A95E2F78095822385BB089522B381E008
:1003500090E002C0880F991F6A95E2F7809582238A
:1003600082BB0895843070F5683070F5813079F083
:1003700028F08230A9F08330E1F028C089B390E002
:1003800002C0959587956A95E2F78170089586B3C6
:1003900090E002C0959587956A95E2F7817008957F
:1003A00083B390E002C0959587956A95E2F78170D6
:1003B000089580B390E002C0959587956A95E2F71D
:1003C0008170089580E0089580E0089580E00895A8
:0403D000F894FFCFCF
:00000001FF
