S0110000646179385F6C6162332E73726563DC
S11300000C942A000C943C000C943C000C943C008E
S11300100C943C000C943C000C943C000C943C006C
S11300200C943C000C943C000C9447010C941E016D
S11300300C943C000C943C000C943C000C943C004C
S11300400C943C000C943C000C943C000C943C003C
S11300500C943C0011241FBECFE5D8E0DEBFCDBF19
S113006020E0A0E6B0E001C01D92A436B207E1F79B
S11300700E943E000C9492010C9400000E94D60051
S1130080C4EB0DC08C2F0E94ED002FE986E891E0AF
S1130090215080409040E1F700C00000C65FC53B9E
S11300A088F3C4EB8C2F0E94ED002FE986E891E0E1
S11300B0215080409040E1F700C00000CA50F2CFC8
S11300C0843008F072C0683008F06FC04F3FA1F56B
S11300D0813089F028F08230C9F0833011F108951D
S11300E02AB381E090E002C0880F991F6A95E2F775
S11300F0822B8ABB089527B381E090E002C0880F69
S1130100991F6A95E2F7822B87BB089524B381E097
S113011090E002C0880F991F6A95E2F7822B84BB96
S1130120089521B381E090E002C0880F991F6A9579
S1130130E2F7822B81BB0895411137C0813091F0E1
S113014028F08230D9F0833029F108952AB381E070
S113015090E002C0880F991F6A95E2F78095822388
S11301608ABB089527B381E090E002C0880F991FED
S11301706A95E2F78095822387BB089524B381E0D2
S113018090E002C0880F991F6A95E2F78095822358
S113019084BB089521B381E090E002C0880F991FC9
S11301A06A95E2F78095822381BB08954FEF63E05F
S11301B081E00E94600013BE83B7806483BF83B76D
S11301C0886083BF83B78F7E83BF83B7806283BF1A
S11301D083B7836083BF1CBE08950F931F93853B31
S11301E008F084EB482F50E060E070E0DB01CA01C6
S11301F0880F991FAA1FBB1F840F951FA61FB71F27
S1130200AC01BD01440F551F661F771F440F551FD6
S1130210661F771F8C019D01040F151F261F371FB2
S1130220C901B80124EB30E040E050E00E947001C5
S1130230205F3F4F2CBF1F910F9108951F920F9283
S11302400FB60F9211242F933F934F935F936F93A5
S11302507F938F939F93AF93BF93EF93FF93E0911B
S11302606200F0916300309709F00995FF91EF91D6
S1130270BF91AF919F918F917F916F915F914F91BA
S11302803F912F910F900FBE0F901F9018951F92C2
S11302900F920FB60F9211242F933F934F935F93B6
S11302A06F937F938F939F93AF93BF93EF93FF933A
S11302B0E0916000F0916100309709F00995FF9199
S11302C0EF91BF91AF919F918F917F916F915F91CA
S11302D04F913F912F910F900FBE0F901F90189543
S11302E0A1E21A2EAA1BBB1BFD010DC0AA1FBB1F36
S11302F0EE1FFF1FA217B307E407F50720F0A21BA8
S1130300B30BE40BF50B661F771F881F991F1A9414
S113031069F760957095809590959B01AC01BD013E
S10B0320CF010895F894FFCF0A
S9030000FC
