:100000000C942A000C943F000C943F000C943F0089
:100010000C943F000C943F000C943F000C943F0064
:100020000C943F000C943F000C943F000C943F0054
:100030000C943F000C943F000C943F000C943F0044
:100040000C943F000C943F000C943F000C943F0034
:100050000C943F0011241FBECFE5D8E0DEBFCDBF1A
:1000600010E0A0E6B0E0E0EFF0E002C005900D92F5
:10007000AA36B107D9F70E9457000C9476000C9469
:1000800000008FEF8ABB87BB84BB81BB08958130A2
:1000900041F028F0823039F0833039F008956BBB9D
:1000A000089568BB089565BB089562BB08950E94DA
:1000B0004100C0E00DC08C2F0E946B002FE38DE04B
:1000C00093E0215080409040E1F700C00000CF5FF6
:1000D000CA3088F3EECF8A3040F4E82FF0E0E05ADF
:1000E000FF4F608183E00E9447000895F894FFCF9E
:0A00F0003F065B4F666D7D077F6FD2
:00000001FF
