:100000000C942A000C9434000C9434000C943400AA
:100010000C9434000C9434000C9434000C94340090
:100020000C9434000C9434000C9434000C94340080
:100030000C9434000C9434000C9434000C94340070
:100040000C9434000C9434000C9434000C94340060
:100050000C94340011241FBECFE5D8E0DEBFCDBF25
:100060000E9436000C94E7010C94000040E060E030
:1000700083E00E94750041E060E083E00E94EB00B5
:1000800040E060E083E00E94750041E060E083E0D2
:100090000E94EB0060E875E280E090E00E9497012A
:1000A000C1E060E083E00E9461018111FACF02C0EB
:1000B000019602C080E090E0883823E19207C0F307
:1000C00060E083E00E9461018111EBCF8C2F90E012
:1000D0000E94C101CF5FC53008F0C1E060E083E05D
:1000E0000E9461018823D1F3DCCF843008F072C014
:1000F000683008F06FC04F3FA1F5813089F028F0DB
:100100008230C9F0833011F108952AB381E090E084
:1001100002C0880F991F6A95E2F7822B8ABB089567
:1001200027B381E090E002C0880F991F6A95E2F73B
:10013000822B87BB089524B381E090E002C0880F32
:10014000991F6A95E2F7822B84BB089521B381E061
:1001500090E002C0880F991F6A95E2F7822B81BB5D
:100160000895411137C0813091F028F08230D9F0E4
:10017000833029F108952AB381E090E002C0880F0E
:10018000991F6A95E2F7809582238ABB089527B369
:1001900081E090E002C0880F991F6A95E2F7809590
:1001A000822387BB089524B381E090E002C0880FCA
:1001B000991F6A95E2F78095822384BB089521B345
:1001C00081E090E002C0880F991F6A95E2F7809560
:1001D000822381BB0895843008F072C0683008F033
:1001E0006FC04130A1F5813089F028F08230C9F02C
:1001F000833011F108952BB381E090E002C0880FA5
:10020000991F6A95E2F7822B8BBB089528B381E092
:1002100090E002C0880F991F6A95E2F7822B88BB95
:10022000089525B381E090E002C0880F991F6A9578
:10023000E2F7822B85BB089522B381E090E002C0F3
:10024000880F991F6A95E2F7822B82BB08954111AE
:1002500037C0813091F028F08230D9F0833029F115
:1002600008952BB381E090E002C0880F991F6A9532
:10027000E2F7809582238BBB089528B381E090E05C
:1002800002C0880F991F6A95E2F78095822388BB88
:10029000089525B381E090E002C0880F991F6A9508
:1002A000E2F78095822385BB089522B381E090E038
:1002B00002C0880F991F6A95E2F78095822382BB5E
:1002C0000895843070F5683070F5813079F028F049
:1002D0008230A9F08330E1F028C089B390E002C0F9
:1002E000959587956A95E2F78170089586B390E0B9
:1002F00002C0959587956A95E2F78170089583B35A
:1003000090E002C0959587956A95E2F7817008950F
:1003100080B390E002C0959587956A95E2F7817069
:10032000089580E0089580E0089580E00895DC015C
:10033000CB01880F991FAA1FBB1F880F991FAA1FE7
:10034000BB1F9C01AD01220F331F441F551F220FFD
:10035000331F441F551F60E074E284EF90E00E9459
:10036000C501215031093DB929B98AB188608AB9DE
:100370008AB180618AB98AB18B7F8AB986E880BDEB
:1003800008955D9BFECF8CB90895A1E21A2EAA1B99
:10039000BB1BFD010DC0AA1FBB1FEE1FFF1FA21735
:1003A000B307E407F50720F0A21BB30BE40BF50B32
:1003B000661F771F881F991F1A9469F760957095BB
:1003C000809590959B01AC01BD01CF010895F894F3
:0203D000FFCF5D
:00000001FF
