S0190000646179355F6C6162325F486272696467652E73726563C4
S11300000C942A000C9434000C9434000C943400A6
S11300100C9434000C9434000C9434000C9434008C
S11300200C9434000C9434000C9434000C9434007C
S11300300C9434000C9434000C9434000C9434006C
S11300400C9434000C9434000C9434000C9434005C
S11300500C94340011241FBECFE5D8E0DEBFCDBF21
S11300600E9436000C94FB000C9400006FEF82E0B9
S11300700E94EB0041E060E082E00E94750041E0F4
S113008063E082E00E94750040E061E082E00E944B
S1130090750040E062E082E00E9475002FE382E494
S11300A09FE0215080409040E1F700C0000040E014
S11300B060E082E00E94750040E063E082E00E941C
S11300C0750041E061E082E00E94750041E062E079
S11300D082E00E9475002FE382E49FE0215080407B
S11300E09040E1F700C00000C5CF843008F072C032
S11300F0683008F06FC04130A1F5813089F028F0F4
S11301008230C9F0833011F108952BB381E090E07F
S113011002C0880F991F6A95E2F7822B8BBB089562
S113012028B381E090E002C0880F991F6A95E2F736
S1130130822B88BB089525B381E090E002C0880F2C
S1130140991F6A95E2F7822B85BB089522B381E05B
S113015090E002C0880F991F6A95E2F7822B82BB58
S11301600895411137C0813091F028F08230D9F0E0
S1130170833029F108952BB381E090E002C0880F09
S1130180991F6A95E2F7809582238BBB089528B363
S113019081E090E002C0880F991F6A95E2F780958C
S11301A0822388BB089525B381E090E002C0880FC4
S11301B0991F6A95E2F78095822385BB089522B33F
S11301C081E090E002C0880F991F6A95E2F780955C
S11301D0822382BB0895813041F028F0823039F0C7
S11301E0833039F008956ABB089567BB089564BBF2
S10D01F0089561BB0895F894FFCF51
S9030000FC
