:100000000C942A000C9447000C9447000C94470071
:100010000C9447000C9447000C9447000C94470044
:100020000C9447000C9447000C9447000C94470034
:100030000C9447000C9447000C9447000C94470024
:100040000C9447000C9447000C9447000C94470014
:100050000C94470011241FBECFE5D8E0DEBFCDBF12
:1000600010E0A0E6B0E0EAE0F4E002C005900D92F6
:10007000A039B107D9F720E0A0E9B0E001C01D9296
:10008000A239B207E1F70E9449000C9403020C94D4
:1000900000000E94580144E650E061E080E00E94C8
:1000A000E301F9CF843008F072C0683008F06FC007
:1000B0004F3FA1F5813089F028F08230C9F08330BC
:1000C00011F108952AB381E090E002C0880F991FD2
:1000D0006A95E2F7822B8ABB089527B381E090E00E
:1000E00002C0880F991F6A95E2F7822B87BB08959B
:1000F00024B381E090E002C0880F991F6A95E2F76F
:10010000822B84BB089521B381E090E002C0880F68
:10011000991F6A95E2F7822B81BB0895411137C080
:10012000813091F028F08230D9F0833029F10895A0
:100130002AB381E090E002C0880F991F6A95E2F728
:10014000809582238ABB089527B381E090E002C0A6
:10015000880F991F6A95E2F78095822387BB0895DF
:1001600024B381E090E002C0880F991F6A95E2F7FE
:100170008095822384BB089521B381E090E002C082
:10018000880F991F6A95E2F78095822381BB0895B5
:10019000843008F072C0683008F06FC04130A1F5BB
:1001A000813089F028F08230C9F0833011F1089550
:1001B0002BB381E090E002C0880F991F6A95E2F7A7
:1001C000822B8BBB089528B381E090E002C0880F9A
:1001D000991F6A95E2F7822B88BB089525B381E0C9
:1001E00090E002C0880F991F6A95E2F7822B85BBC9
:1001F000089522B381E090E002C0880F991F6A95AC
:10020000E2F7822B82BB0895411137C0813091F013
:1002100028F08230D9F0833029F108952BB381E0A2
:1002200090E002C0880F991F6A95E2F780958223BB
:100230008BBB089528B381E090E002C0880F991F1E
:100240006A95E2F78095822388BB089525B381E003
:1002500090E002C0880F991F6A95E2F7809582238B
:1002600085BB089522B381E090E002C0880F991FFA
:100270006A95E2F78095822382BB0895CF93DF933E
:10028000EC01488160E082E00E94C800498161E0A1
:1002900082E00E94C8004A8162E082E00E94C800B9
:1002A0004B8163E082E00E94C800DF91CF91089506
:1002B0004FEF60E082E00E9452004FEF61E082E089
:1002C0000E9452004FEF62E082E00E9452004FEF26
:1002D00063E082E00E94520040E060E082E00E9421
:1002E000C80040E061E082E00E94C80040E062E0B7
:1002F00082E00E94C80040E063E082E00E94C80003
:100300001092910010929000089581110FC0809179
:10031000910090E0019683709078992324F40197DE
:100320008C6F9F6F01968093910009C0809191001E
:10033000882311F0815001C083E080939100809167
:10034000910090E0880F991F880F991F80589F4F48
:100350000E943E012FE38DE093E0215080409040C9
:10036000E1F700C00000089581110FC08091900056
:1003700090E0019687709078992324F40197886F14
:100380009F6F01968093900009C080919000882310
:1003900011F0815001C087E080939000809190001F
:1003A00090E0880F991F880F991F805A9F4F0E94D5
:1003B0003E012FE38DE093E0215080409040E1F733
:1003C00000C000000895EF92FF920F931F93CF9308
:1003D000DF93E82EF62E8A01C0E0D0E00AC0E110DB
:1003E00004C08F2D0E94850103C08F2D0E94B4018F
:1003F0002196C017D10798F3DF91CF911F910F91EC
:0A040000FF90EF900895F894FFCFED
:10040A0001000000010100000001000000010100DC
:10041A0000000100000001010000000101000001CC
:10042A0001010000000101000000010101000001BA
:00000001FF
