:100000000C942A000C9434000C9434000C943400AA
:100010000C9434000C9434000C9434000C94340090
:100020000C9434000C9434000C9434000C94340080
:100030000C9434000C9434000C9434000C94340070
:100040000C9434000C9434000C9434000C94340060
:100050000C94340011241FBECFE5D8E0DEBFCDBF25
:100060000E9443010C94BC010C940000843008F001
:1000700062C0683008F05FC0413051F58230B1F0A5
:100080008330E9F0813049F02AB381E090E001C08B
:10009000880F6A95EAF7822B2CC027B381E090E0A5
:1000A00001C0880F6A95EAF7822B2EC024B381E045
:1000B00090E001C0880F6A95EAF7822B30C021B327
:1000C00081E090E001C0880F6A95EAF7822B32C088
:1000D000411131C08230D1F0833019F1813059F0B3
:1000E0002AB381E090E001C0880F6A95EAF7809515
:1000F00082238ABB089527B381E090E001C0880F76
:100100006A95EAF78095822387BB089524B381E03E
:1001100090E001C0880F6A95EAF78095822384BB3E
:10012000089521B381E090E001C0880F6A95EAF755
:100130008095822381BB0895843008F062C06830C6
:1001400008F05FC0413051F58230B1F08330E9F002
:10015000813049F02BB381E090E001C0880F6A95AF
:10016000EAF7822B2CC028B381E090E001C0880F11
:100170006A95EAF7822B2EC025B381E090E001C09A
:10018000880F6A95EAF7822B30C022B381E090E0B5
:1001900001C0880F6A95EAF7822B32C0411131C045
:1001A0008230D1F0833019F1813059F02BB381E0E6
:1001B00090E001C0880F6A95EAF7809582238BBB97
:1001C000089528B381E090E001C0880F6A95EAF7AE
:1001D0008095822388BB089525B381E090E001C01B
:1001E000880F6A95EAF78095822385BB089522B32C
:1001F00081E090E001C0880F6A95EAF7809582233C
:1002000082BB08958FEF8ABB87BB84BB81BB0895F7
:100210008430B8F46830A8F4823041F0833079F04B
:10022000813011F089B303C086B301C083B390E07D
:1002300002C0959587956A95E2F78170089580B31D
:10024000F6CF80E00895813041F028F0823039F017
:10025000833039F008956ABB089567BB089564BB85
:10026000089561BB0895813041F028F0823039F063
:10027000833039F008956BBB089568BB089565BB62
:10028000089562BB089540E060E080E00E9436007F
:1002900040E061E080E00E94360040E062E080E003
:1002A0000E94360040E063E080E00E94360041E0BA
:1002B00060E080E00E949C0041E061E080E00E94FC
:1002C0009C0041E062E080E00E949C0041E063E02D
:1002D00080E00E949C0041E060E082E00E943600E5
:1002E00041E061E082E00E94360041E062E082E0AD
:1002F0000E94360040E060E082E00E949C0040E006
:1003000061E082E00E949C0040E062E082E00E94A6
:100310009C0063E080E00E94080181110BC041E075
:1003200060E082E00E949C0041E061E082E00E9487
:100330009C0020C060E080E00E940801811102C0A2
:1003400041E001C040E060E082E00E949C0061E08A
:1003500080E00E940801811102C041E001C040E03C
:1003600061E082E00E949C0062E080E00E9408015F
:0C0370008111CACF41E0C9CFF894FFCF43
:00000001FF
