:100000000C942A000C9448020C9447000C9447006E
:100010000C9447000C9447000C9447000C94470044
:100020000C9447000C9447000C9462000C94470019
:100030000C9447000C9447000C9447000C94470024
:100040000C9447000C9447000C9447000C94470014
:100050000C94470011241FBECFE5D8E0DEBFCDBF12
:1000600010E0A0E6B0E0E8E4F6E002C005900D92F2
:10007000A236B107D9F720E0A2E6B0E001C01D9298
:10008000A636B207E1F70E949E000C9422030C945E
:10009000000080916000813359F041E060E082E02F
:1000A0000E94B90184EF91E0909363008093620015
:1000B00008958AE083BF8CE78CBF12BE89B7826047
:1000C00089BF08951F920F920FB60F9211242F939C
:1000D0003F934F935F936F937F938F939F93AF93D0
:1000E000BF93EF93FF938091620090916300892BFF
:1000F00079F0809162009091630001979093630082
:100100008093620041E060E082E00E94B90105C096
:1001100040E060E082E00E94B901FF91EF91BF9161
:10012000AF919F918F917F916F915F914F913F918F
:100130002F910F900FBE0F901F901895CF93DF93C4
:100140001F92CDB7DEB741E060E082E00E9443013C
:1001500040E060E082E00E94B90140E062E083E0BC
:100160000E94430141E062E083E00E94B90140E067
:1001700060E080E00E94430140E061E080E00E9496
:10018000430141E060E081E00E94430181B380626D
:1001900081BB80E895E20E94A3020E9459000E9460
:1001A00023010E94710289E490E00E9441020E94B2
:1001B0002F020E9439020E943D021982CE0101964F
:1001C0000E94CD028823E1F0898180936000813311
:1001D00051F440E060E082E00E94B90110926300B7
:1001E000109262000DC0823359F441E060E082E079
:1001F0000E94B90184EF91E09093630080936200C4
:10020000809160008133D1F680E00E942D018E350F
:10021000914030F040E060E081E00E94B90105C00B
:1002200041E060E081E00E94B90181E00E942D017F
:100230008139914020F084EB0E949702BFCF80E08B
:100240000E949702BBCF86B1806886B986B186606E
:1002500086B987B1806487B90895877097B1987F10
:1002600097B997B1892B87B986B1806486B9349BD9
:10027000FECF34B185B190E0982F882726B1206158
:1002800026B9832B0895843008F072C0683008F0D6
:100290006FC04130A1F5813089F028F08230C9F07B
:1002A000833011F108952AB381E090E002C0880FF5
:1002B000991F6A95E2F7822B8ABB089527B381E0E4
:1002C00090E002C0880F991F6A95E2F7822B87BBE6
:1002D000089524B381E090E002C0880F991F6A95C9
:1002E000E2F7822B84BB089521B381E090E002C045
:1002F000880F991F6A95E2F7822B81BB08954111FF
:1003000037C0813091F028F08230D9F0833029F164
:1003100008952AB381E090E002C0880F991F6A9582
:10032000E2F7809582238ABB089527B381E090E0AD
:1003300002C0880F991F6A95E2F78095822387BBD8
:10034000089524B381E090E002C0880F991F6A9558
:10035000E2F78095822384BB089521B381E090E089
:1003600002C0880F991F6A95E2F78095822381BBAE
:100370000895843008F072C0683008F06FC04130D2
:10038000A1F5813089F028F08230C9F0833011F175
:1003900008952BB381E090E002C0880F991F6A9501
:1003A000E2F7822B8BBB089528B381E090E002C076
:1003B000880F991F6A95E2F7822B88BB089525B3B1
:1003C00081E090E002C0880F991F6A95E2F7822BC6
:1003D00085BB089522B381E090E002C0880F991F89
:1003E0006A95E2F7822B82BB0895411137C08130B4
:1003F00091F028F08230D9F0833029F108952BB3A1
:1004000081E090E002C0880F991F6A95E2F780951D
:1004100082238BBB089528B381E090E002C0880F4F
:10042000991F6A95E2F78095822388BB089525B3CA
:1004300081E090E002C0880F991F6A95E2F78095ED
:10044000822385BB089522B381E090E002C0880F2B
:10045000991F6A95E2F78095822382BB089585B73C
:10046000816085BF85B7826085BF8AB780648ABF97
:1004700008958BB780648BBF08958FB780688FBF56
:100480000895009721F0909365008093640008958B
:100490001F920F920FB60F9211242F933F934F93F9
:1004A0005F936F937F938F939F93AF93BF93EF93DC
:1004B000FF93E0916400F0916500309709F0099591
:1004C000FF91EF91BF91AF919F918F917F916F912C
:1004D0005F914F913F912F910F900FBE0F901F9002
:1004E00018958FB58E7F8FBD8FB582608FBD8EB50D
:1004F00088608EBD8EB580618EBD8FB58F7B8FBDC0
:100500008FB580688FBD8FB58F7E8FBD8FB58062B0
:100510008FBD8EB58E7F8EBD8EB582608EBD8EB541
:100520008B7F8EBD89E087BD83EC86BD08952EE369
:10053000829FC001112464EB70E00E94D8026454D1
:100540001BBC6ABD0895A0E0B0E0880F991FAA1FE8
:10055000BB1F880F991FAA1FBB1F9C01AD01220F53
:10056000331F441F551F220F331F441F551F60E0C8
:1005700072E18AE790E00E94EC022150310930BD1F
:1005800029B98AB188608AB98AB180618AB98AB189
:100590008B7F8AB986E880BD0895FC019BB1892FC5
:1005A000881F8827881F19F08CB1808381E0089507
:1005B00097FB072E16F4009407D077FD09D00E9410
:1005C0000E0307FC05D03EF4909581959F4F08954A
:1005D000709561957F4F0895A1E21A2EAA1BBB1B4F
:1005E000FD010DC0AA1FBB1FEE1FFF1FA217B307FF
:1005F000E407F50720F0A21BB30BE40BF50B661F15
:10060000771F881F991F1A9469F7609570958095D8
:1006100090959B01AC01BD01CF010895AA1BBB1BA6
:1006200051E107C0AA1FBB1FA617B70710F0A61BF2
:10063000B70B881F991F5A95A9F780959095BC0113
:08064000CD010895F894FFCFED
:02064800300080
:00000001FF
