S01F0000646179365F6C6162315F696E7465725F6C65645F7377692E737265630B
S11300000C942A000C944F000C9461000C9434005E
S11300100C9434000C9434000C9434000C9434008C
S11300200C9434000C9434000C9434000C9434007C
S11300300C9434000C9434000C9434000C9434006C
S11300400C9434000C9434000C9434000C9434005C
S11300500C94340011241FBECFE5D8E0DEBFCDBF21
S11300600E9436000C9489010C9400004FEF60E06C
S113007082E00E9473004FEF61E082E00E9473000F
S113008040E062E082E00E94730040E063E082E0CE
S11300900E9473000E945F010E947401FFCF1F92AF
S11300A00F920FB60F9211248F939F9395B381E013
S11300B0892785BB9F918F910F900FBE0F901F9042
S11300C018951F920F920FB60F9211248F939F933E
S11300D095B382E0892785BB9F918F910F900FBEC6
S11300E00F901F901895843008F072C0683008F0A3
S11300F06FC04F3FA1F5813089F028F08230C9F0FC
S1130100833011F108952AB381E090E002C0880F92
S1130110991F6A95E2F7822B8ABB089527B381E081
S113012090E002C0880F991F6A95E2F7822B87BB83
S1130130089524B381E090E002C0880F991F6A9566
S1130140E2F7822B84BB089521B381E090E002C0E2
S1130150880F991F6A95E2F7822B81BB089541119C
S113016037C0813091F028F08230D9F0833029F102
S113017008952AB381E090E002C0880F991F6A9520
S1130180E2F7809582238ABB089527B381E090E04B
S113019002C0880F991F6A95E2F78095822387BB76
S11301A0089524B381E090E002C0880F991F6A95F6
S11301B0E2F78095822384BB089521B381E090E027
S11301C002C0880F991F6A95E2F78095822381BB4C
S11301D00895843008F072C0683008F06FC0413070
S11301E0A1F5813089F028F08230C9F0833011F113
S11301F008952BB381E090E002C0880F991F6A959F
S1130200E2F7822B8BBB089528B381E090E002C013
S1130210880F991F6A95E2F7822B88BB089525B34E
S113022081E090E002C0880F991F6A95E2F7822B63
S113023085BB089522B381E090E002C0880F991F26
S11302406A95E2F7822B82BB0895411137C0813051
S113025091F028F08230D9F0833029F108952BB33E
S113026081E090E002C0880F991F6A95E2F78095BB
S113027082238BBB089528B381E090E002C0880FED
S1130280991F6A95E2F78095822388BB089525B368
S113029081E090E002C0880F991F6A95E2F780958B
S11302A0822385BB089522B381E090E002C0880FC9
S11302B0991F6A95E2F78095822382BB089540E0F6
S11302C062E083E00E94730041E062E083E00E9408
S11302D0E90085B7826085BF85B78E7F85BF8BB700
S11302E080648BBF7894089540E063E083E00E94CB
S11302F0730041E063E083E00E94E90085B7886011
S113030085BF85B78B7F85BF8BB780688BBF78949B
S10903100895F894FFCFEC
S9030000FC
