:100000000C9434000C9449000C9449000C94490061
:100010000C9449000C9449000C9449000C9449003C
:100020000C9449000C9449000C9449000C9449002C
:100030000C9449000C9449000C9449000C9449001C
:100040000C9449000C9449000C9449000C9449000C
:100050000C94490071025F0261026302650267024B
:1000600069026B026D026F0211241FBECFE5D8E05A
:10007000DEBFCDBF10E0A0E6B0E0E4E2F5E002C0F4
:1000800005900D92AA37B107D9F70E944D020C9442
:1000900090020C940000843008F072C0683008F0C0
:1000A0006FC04130A1F5813089F028F08230C9F06D
:1000B000833011F108952AB381E090E002C0880FE7
:1000C000991F6A95E2F7822B8ABB089527B381E0D6
:1000D00090E002C0880F991F6A95E2F7822B87BBD8
:1000E000089524B381E090E002C0880F991F6A95BB
:1000F000E2F7822B84BB089521B381E090E002C037
:10010000880F991F6A95E2F7822B81BB08954111F0
:1001100037C0813091F028F08230D9F0833029F156
:1001200008952AB381E090E002C0880F991F6A9574
:10013000E2F7809582238ABB089527B381E090E09F
:1001400002C0880F991F6A95E2F78095822387BBCA
:10015000089524B381E090E002C0880F991F6A954A
:10016000E2F78095822384BB089521B381E090E07B
:1001700002C0880F991F6A95E2F78095822381BBA0
:100180000895843008F072C0683008F06FC04130C4
:10019000A1F5813089F028F08230C9F0833011F167
:1001A00008952BB381E090E002C0880F991F6A95F3
:1001B000E2F7822B8BBB089528B381E090E002C068
:1001C000880F991F6A95E2F7822B88BB089525B3A3
:1001D00081E090E002C0880F991F6A95E2F7822BB8
:1001E00085BB089522B381E090E002C0880F991F7B
:1001F0006A95E2F7822B82BB0895411137C08130A6
:1002000091F028F08230D9F0833029F108952BB392
:1002100081E090E002C0880F991F6A95E2F780950F
:1002200082238BBB089528B381E090E002C0880F41
:10023000991F6A95E2F78095822388BB089525B3BC
:1002400081E090E002C0880F991F6A95E2F78095DF
:10025000822385BB089522B381E090E002C0880F1D
:10026000991F6A95E2F78095822382BB08958430B6
:1002700070F5683070F5813079F028F08230A9F09F
:100280008330E1F028C089B390E002C0959587954E
:100290006A95E2F78170089586B390E002C0959563
:1002A00087956A95E2F78170089583B390E002C064
:1002B000959587956A95E2F78170089580B390E0EF
:1002C00002C0959587956A95E2F78170089580E060
:1002D000089580E0089580E00895813041F028F08D
:1002E000823039F0833039F008956ABB089567BBD6
:1002F000089564BB089561BB0895813041F028F0F2
:10030000823039F0833039F008956BBB089568BBB3
:10031000089565BB089562BB089540E060E080E009
:100320000E944B0040E061E080E00E944B0040E012
:1003300062E080E00E944B0040E063E080E00E94C9
:100340004B0041E060E081E00E944B0041E061E051
:1003500081E00E944B0041E062E081E00E944B009E
:1003600041E063E081E00E944B0041E060E080E01A
:100370000E94C10041E061E080E00E94C10041E0D4
:1003800062E080E00E94C10041E063E080E00E9402
:10039000C10041E060E081E00E94C10041E061E015
:1003A00081E00E94C10041E062E081E00E94C10062
:1003B00041E063E081E00E94C1000895EF92FF9266
:1003C0000F931F93CF93DF93CDB7DEB760970FB630
:1003D000F894DEBF0FBECDBF80E1E0E6F0E0DE01C5
:1003E000119601900D928A95E1F700E041C0E02E50
:1003F000F12C61E070E0002E02C0660F771F0A94B6
:10040000E2F7609581E00E947D0110E02EC0612F2F
:1004100080E00E943701811127C087E893E10197AE
:10042000F1F700C00000612F80E00E9437018111C8
:100430001BC0612F80E00E9437018823D1F36FEF4A
:1004400081E00E947D01812F90E0880F991F880F25
:10045000991F21E030E02C0F3D1F820F931FFC01FC
:10046000EE0DFF1D80810CC01F5F143080F20F5F06
:10047000043008F4BCCF6FEF81E00E947D0180E082
:1004800060960FB6F894DEBF0FBECDBFDF91CF915F
:100490001F910F91FF90EF9008950E948D010E948F
:1004A00081020E94DE018823E1F390E0FC01F097D5
:1004B000EA30F105B8F4E65DFF4F0C948A02C1E022
:1004C00011C0C2E00FC0C3E00DC0C4E00BC0C5E066
:1004D00009C0C6E007C0C7E005C0C8E003C0C9E066
:1004E00001C0C0E08C2F0E947602DBCF8A3040F43E
:1004F000E82FF0E0E059FF4F608182E00E947D012B
:1005000008956FEF82E00E946D0160E082E00E943A
:100510007D010895EE0FFF1F0590F491E02D0994E1
:04052000F894FFCF7D
:100524002F3938372A3635342D3332312B3D304389
:0A0534003F065B4F666D7D077F6F89
:00000001FF
