S0120000646179395F4932435F532E73726563CC
S11300000C942A000C943F000C943F000C943F0085
S11300100C943F000C943F000C943F000C943F0060
S11300200C943F000C943F000C943F000C943F0050
S11300300C943F000C943F000C943F000C943F0040
S11300400C943F000C943F000C943F000C943F0030
S11300500C943F0011241FBECFE5D8E0DEBFCDBF16
S113006010E0A0E6B0E0EEEBF3E002C005900D92E4
S1130070AE39B107D9F70E9441000C94DD010C940C
S11300800000CF93DF931F92CDB7DEB7198287EAC2
S113009091E60197F1F700C000000E94940181E00D
S11300A00E941A0181E00E946C0183EF91E00197A4
S11300B0F1F700C0000060E080E00E94D60180E615
S11300C090E00E94C90161E080E00E94D60181E7CE
S11300D090E00E94C901CE0101960E941F01813067
S11300E0D1F761E080E00E94D6018981843429F44B
S11300F080E890E00E94C901EECF823461F78FE876
S113010090E00E94C901E7CF843008F072C06830E3
S113011008F06FC04130A1F5813089F028F08230B9
S1130120C9F0833011F108952BB381E090E002C04F
S1130130880F991F6A95E2F7822B8BBB089528B329
S113014081E090E002C0880F991F6A95E2F7822B44
S113015088BB089525B381E090E002C0880F991F01
S11301606A95E2F7822B85BB089522B381E090E083
S113017002C0880F991F6A95E2F7822B82BB08950B
S1130180411137C0813091F028F08230D9F08330AA
S113019029F108952BB381E090E002C0880F991FE4
S11301A06A95E2F7809582238BBB089528B381E09A
S11301B090E002C0880F991F6A95E2F78095822328
S11301C088BB089525B381E090E002C0880F991F91
S11301D06A95E2F78095822385BB089522B381E076
S11301E090E002C0880F991F6A95E2F780958223F8
S11301F082BB0895813041F028F0823039F0833099
S113020039F008956ABB089567BB089564BB0895E7
S113021061BB0895813041F028F0823039F0833099
S113022039F008956BBB089568BB089565BB0895C4
S113023062BB0895880F82B984EC86BF0895FC01DF
S113024094EC96BF06B607FEFDCF91B1987F903629
S113025031F0983621F084EC86BF80E0089584EC78
S113026086BF06B607FEFDCF91B1987F903811F096
S1130270983831F483B1808384EC86BF81E008959B
S113028084EC86BF80E00895CF93C82F41E060E0FE
S113029081E00E94840040E061E081E00E948400EB
S11302A06C2F83E00E940A0141E062E081E00E9439
S11302B0840089EF90E00197F1F700C0000040E06E
S11302C062E081E00E94840083EF91E00197F1F7FE
S11302D000C00000CF910895CF93C82F40E060E0A4
S11302E081E00E94840040E061E081E00E9484009B
S11302F06C2F83E00E940A0141E062E081E00E94E9
S1130300840089EF90E00197F1F700C0000040E01D
S113031062E081E00E94840083EF91E00197F1F7AD
S113032000C00000CF9108956FEF81E00E94FA00B1
S11303306FEF83E00E94FA0060E081E00E940A010E
S113034060E083E00E940A018BE49DE10197F1F7EC
S113035000C0000088E30E946C0189EF90E00197DF
S1130360F1F700C000008CE00E946C0189EF90E07E
S11303700197F1F700C0000081E00E946C0183EF57
S113038091E00197F1F700C0000086E00E946C0143
S11303900895CF93DF93EC0103C00E94440121969A
S11303A088818111FACFDF91CF910895613009F4EA
S11103B0805C80680E946C010895F894FFCF71
S11303BE4C4452204E6F6465204D6F6E69746F729B
S11303CE0057616974696E67204932432E2E2E00E0
S11303DE5374617475733A204441524B2020005378
S11103EE74617475733A2042524947485400B2
S9030000FC
