S01E0000646179345F61737369676E5F63616C63756C61746F722E7372656327
S11300000C942A000C943F000C943F000C943F0085
S11300100C943F000C943F000C943F000C943F0060
S11300200C943F000C943F000C943F000C943F0050
S11300300C943F000C943F000C943F000C943F0040
S11300400C943F000C943F000C943F000C943F0030
S11300500C943F0011241FBECFE5D8E0DEBFCDBF16
S113006010E0A0E6B0E0E8E0F8E002C005900D92F0
S1130070AA37B107D9F70E9441000C9402040C94EA
S113008000000E94AE010E94A20281E00E94FF02D1
S113009060E080E00E94340380E790E00E94270340
S11300A00E947502C82F61E080E00E94340387E754
S11300B090E00E9427036C2FCC0F770B880B990BD1
S11300C00E943B032FE78AE196E021508040904054
S11300D0E1F700C00000D9CF843008F072C0683066
S11300E008F06FC04F3FA1F5813089F028F08230CD
S11300F0C9F0833011F108952AB381E090E002C081
S1130100880F991F6A95E2F7822B8ABB089527B35B
S113011081E090E002C0880F991F6A95E2F7822B74
S113012087BB089524B381E090E002C0880F991F33
S11301306A95E2F7822B84BB089521B381E090E0B5
S113014002C0880F991F6A95E2F7822B81BB08953C
S1130150411137C0813091F028F08230D9F08330DA
S113016029F108952AB381E090E002C0880F991F15
S11301706A95E2F7809582238ABB089527B381E0CC
S113018090E002C0880F991F6A95E2F78095822358
S113019087BB089524B381E090E002C0880F991FC3
S11301A06A95E2F78095822384BB089521B381E0A8
S11301B090E002C0880F991F6A95E2F78095822328
S11301C081BB0895843008F072C0683008F06FC0B5
S11301D04130A1F5813089F028F08230C9F08330B4
S11301E011F108952BB381E090E002C0880F991FAC
S11301F06A95E2F7822B8BBB089528B381E090E0E7
S113020002C0880F991F6A95E2F7822B88BB089574
S113021025B381E090E002C0880F991F6A95E2F748
S1130220822B85BB089522B381E090E002C0880F41
S1130230991F6A95E2F7822B82BB0895411137C05A
S1130240813091F028F08230D9F0833029F108957B
S11302502BB381E090E002C0880F991F6A95E2F702
S1130260809582238BBB089528B381E090E002C07F
S1130270880F991F6A95E2F78095822388BB0895B9
S113028025B381E090E002C0880F991F6A95E2F7D8
S11302908095822385BB089522B381E090E002C05B
S11302A0880F991F6A95E2F78095822382BB08958F
S11302B0843070F5683070F5813079F028F0823040
S11302C0A9F08330E1F028C089B390E002C095958D
S11302D087956A95E2F78170089586B390E002C02D
S11302E0959587956A95E2F78170089583B390E0B8
S11302F002C0959587956A95E2F78170089580B359
S113030090E002C0959587956A95E2F7817008950B
S113031080E0089580E0089580E00895813041F000
S113032028F0823039F0833039F008956ABB08959B
S113033067BB089564BB089561BB0895813041F0A3
S113034028F0823039F0833039F008956BBB08957A
S113035068BB089565BB089562BB089540E060E002
S113036080E00E946C0040E061E080E00E946C004C
S113037040E062E080E00E946C0040E063E080E0E6
S11303800E946C004FEF60E081E00E946C004FEF30
S113039061E081E00E946C004FEF62E081E00E9426
S11303A06C004FEF63E081E00E946C0041E060E08C
S11303B080E00E94E20041E061E080E00E94E2000F
S11303C041E062E080E00E94E20041E063E080E01E
S11303D00E94E20041E060E081E00E94E20041E02E
S11303E061E081E00E94E20041E062E081E00E947D
S11303F0E20041E063E081E00E94E2000895EF92B0
S1130400FF920F931F93CF93DF93CDB7DEB760971F
S11304100FB6F894DEBF0FBECDBF80E1E0E6F0E09A
S1130420DE01119601900D928A95E1F700E041C03A
S1130430E02EF12C61E070E0002E02C0660F771F01
S11304400A94E2F7609581E00E949E0110E02EC0BC
S1130450612F80E00E945801811127C087E893E151
S11304600197F1F700C00000612F80E00E9458015D
S113047081111BC0612F80E00E9458018823D1F3B1
S11304806FEF81E00E949E01812F90E0880F991FF9
S1130490880F991F21E030E02C0F3D1F820F931F1E
S11304A0FC01EE0DFF1D80810CC01F5F143080F233
S11304B00F5F043008F4BCCF6FEF81E00E949E010F
S11304C080E060960FB6F894DEBF0FBECDBFDF911B
S11304D0CF911F910F91FF90EF90089580E002C09B
S11304E00E94FF018823E1F30895CF93DF930E94D4
S11304F06E02C82F0E946E02D82F0E946E02C05353
S113050060ED6D0F8B32A9F018F48A3259F014C0E3
S11305108D3261F08F3281F4662381F08C2F0E943A
S1130520B5030DC0C69F802D112409C08C2F861BD6
S113053006C08C2F860F03C080E001C080E0DF91ED
S1130540CF9108956FEF82E00E948E012FE78AE138
S113055096E0215080409040E1F700C000006FEF2A
S113056083E00E948E012FE78AE196E021508040CB
S11305709040E1F700C0000060E082E00E949E012C
S11305802FE78AE196E0215080409040E1F700C0D7
S1130590000060E083E00E949E012FE78AE196E07C
S11305A0215080409040E1F700C000000895CF93AF
S11305B0C82F41E060E082E00E94E20040E061E098
S11305C082E00E94E2006C2F83E00E949E0141E0E1
S11305D062E082E00E94E20089EF90E00197F1F787
S11305E000C0000040E062E082E00E94E20083EF8D
S11305F091E00197F1F700C00000CF910895CF93E7
S1130600C82F40E060E082E00E94E20040E061E048
S113061082E00E94E2006C2F83E00E949E0141E090
S113062062E082E00E94E20089EF90E00197F1F736
S113063000C0000040E062E082E00E94E20083EF3C
S113064091E00197F1F700C00000CF910895CF9396
S1130650DF93EC0103C00E94D702219688818111A7
S1130660FACFDF91CF910895613009F4805C8068FE
S11306700E94FF0208950F931F93CF93DF93CDB78A
S1130680DEB72C970FB6F894DEBF0FBECDBF99230B
S11306904CF490958095709561957F4F8F4F9F4F47
S11306A001E001C000E06115710581059105C1F407
S11306B080E3898311E01AC02AE030E040E050E092
S11306C00E94C103E1E0F0E0EC0FFD1FE10FF11D1A
S11306D0605D6083622F732F842F952F1F5F01C08D
S11306E010E0161617061806190634F3002349F00D
S11306F0E1E0F0E0EC0FFD1FE10FF11D8DE28083DE
S11307001F5F80E018C0282F30E0A1E0B0E0AC0FFC
S1130710BD1FA20FB31F9C91E12FF0E03197E21BA4
S1130720F30B21E030E02C0F3D1FE20FF31F20817B
S11307302C9390838F5F912F9695891720F3E1E096
S1130740F0E0EC0FFD1FE10FF11D1082CE010196C8
S11307500E9427032C960FB6F894DEBF0FBECDBFC0
S1130760DF91CF911F910F910895991B79E004C0F7
S1130770991F961708F0961B881F7A95C9F78095DC
S11307800895052E97FB1EF400940E94D80357FD8C
S113079007D00E94E00307FC03D04EF40C94D80366
S11307A050954095309521953F4F4F4F5F4F089599
S11307B090958095709561957F4F8F4F9F4F0895C9
S11307C0A1E21A2EAA1BBB1BFD010DC0AA1FBB1F51
S11307D0EE1FFF1FA217B307E407F50720F0A21BC3
S11307E0B30BE40BF50B661F771F881F991F1A9430
S11307F069F760957095809590959B01AC01BD015A
S10B0800CF010895F894FFCF25
S11308082F3938372A3635342D3332312B3D30439E
S10D0818456E7465723A003D20003D
S9030000FC
